:10400000C00A00209D470000994700009947000022
:10401000D9690000994700009947000099470000BE
:104020009947000099470000994700009947000010
:104030009947000094D40200994700009947000076
:1040400099470000994700009947000099470000F0
:1040500099470000994700009947000099470000E0
:1040600099470000994700007D760000A5460000B2
:10407000B1460000994700009947000099470000A9
:1040800099470000994700009947000099470000B0
:1040900099470000994700009947000099470000A0
:1040A0009947000099470000994700009947000090
:1040B00099470000994700009947000021C102007C
:1040C000C1C00200BDC0020021B802001DC1020033
:1040D000C5C00200E5C00200C9C00200A19F0200E5
:1040E0005DC1020099470000994700009947000010
:1040F00099470000B161000099470000994700000E
:10410000994700009947000099470000994700002F
:10411000994700009947000099470000994700001F
:10412000994700009947000099470000994700000F
:104130009947000010B5054C237833B9044B13B1EF
:10414000044800E000BF0123237010BD680E00206A
:1041500000000000C800030008B5034B1BB1034971
:10416000034800E000BF08BD000000006C0E002006
:10417000C8000300154B002B08BF134B9D46A3F549
:10418000803A00218B460F461348144A121A28F031
:1041900030FA0F4B002B00D098470E4B002B00D06D
:1041A00098470020002104000D000D48002802D08F
:1041B0000C4800E000BF28F0B5F92000290000F00D
:1041C00049F928F09BF900BF00000800C00A002050
:1041D0000000000000000000680E0020902B00206E
:1041E00000000000000000002DE9F0418CB004AC9C
:1041F00005460F46A046424A02F1180326461068BB
:104200005168083203C69A423446F7D11068938841
:104210003060B38028461FF05BF83A4C064688B100
:10422000394A3A49206802F006F83949324620688E
:1042300002F001F8304600F083FA3649206801F0B8
:10424000FAFFFEE7014643461E2228781FF0BEF81B
:10425000064688B12C4A2D49206801F0ECFF2C4914
:104260003246206801F0E7FF304600F069FA29493C
:10427000206801F0E0FFFEE7A02228783346009690
:1042800011461FF043F8064688B11F4A1F492068AF
:1042900001F0D1FF1E493246206801F0CCFF3046C4
:1042A00000F04EFA1B49206801F0C5FFFEE702ABA3
:1042B0002878009397E80C0003211FF055F8164961
:1042C0000246206801F0B7FF2878324604211FF02B
:1042D000B3F8054688B10C4A0C49206801F0ABFFE1
:1042E0000B492A46206801F0A6FF284600F028FA6C
:1042F0000849206801F09FFFFEE70CB0BDE8F0819F
:1043000038D40200280F002056D402005AD40200EC
:104310005ED4020072D4020083D40200704770475A
:1043200030B50368394A23F47F4323F007039342EF
:1043300085B069D100210DF1060301AA6FF01D00BF
:104340001FF09CF80546324C3249206801F073FF9B
:104350008DB1314A3149206801F06DFF30492A465C
:10436000206801F068FF284600F0EAF92D4920682E
:1043700001F061FFFEE72C4B02A9029341F21113F9
:104380002A48ADF80C30FFF72FFF222302A9284856
:104390008DF80C30FFF728FF332302A925488DF84C
:1043A0000C30FFF721FF442302A923488DF80C307D
:1043B000FFF71AFF552302A920488DF80C30FFF7AC
:1043C00013FF662302A91E488DF80C30FFF70CFF7F
:1043D000772302A91B488DF80C30FFF705FF8823CF
:1043E00002A919488DF80C30FFF7FEFE992302A9A7
:1043F00016488DF80C30FFF7F7FEAA2302A91448DF
:104400008DF80C30FFF7F0FE05B030BDA0000100C4
:10441000280F00208DD4020056D402005AD4020086
:104420005ED4020072D40200EEDDCCBBC00A0020D4
:10443000C20A0020C30A0020C40A0020C50A0020C6
:10444000C60A0020C70A0020C80A0020C90A0020A6
:10445000C10A002008B503F02EF9FFF75FFF03F053
:1044600037F9FFF75CFF02F0B9FBF8E708B504483D
:104470000AF060FCBDE8084002480AF08DBC00BFAD
:10448000B0D6020090D602000120704700B5C3B03C
:104490000AF0AAFD0AF0D3FD48B1FFF7F5FF30B1ED
:1044A00001A81EF00FFF10B901A8FFF739FF43B0B4
:1044B0005DF804FB00F064B908B50421002000F0A9
:1044C00041FE0721084600F03DFE0721082000F0CC
:1044D00039FE07211C2000F035FE0721242000F0C2
:1044E00031FE0721252000F02DFE002008BD000030
:1044F00007B501A801F0CCF9294B9B6DDB0318D45B
:10450000284A136823F4FF0323F4FE4343F4BC1347
:1045100043F4A063136052F8043C23F4704343F463
:10452000404342F8043C52F8043C43F4E06342F850
:10453000043C9DF80530012B0FD19DF8043063B980
:104540004FF000531B68184B1B68184B1B68184B27
:104550001B68184B1B68184B1B68184AD2F8803030
:1045600043F00303C2F8803001F01EFC00F013F9A1
:1045700001F0CAFB01F036FC01F0CEFB01F0FAFBC2
:10458000FFF79AFF01F0AFFB00F003F900F000FA2B
:1045900002F034FD02F090FA03B05DF804FB00BFB6
:1045A00000C0004034C000400040002000800020D7
:1045B00000C00020000001200040012000800040D9
:1045C000704708B502F0E0FD01F00EFC00F05CF869
:1045D00006F016FBBDE8084002F05EB908B501F030
:1045E00067FB01F071FBBDE80840FFF73FBF00F03B
:1045F0009DB870477047FFF749BF704770B5114EBF
:1046000092B035460BAC0FCD0FC495E807000323DD
:1046100084E8070003AD8DF8443006F11C030FCB8E
:1046200007AC85E80F0006F12C030FCB84E80F00E0
:10463000054B0BAA009321462B46044802F032F8A2
:1046400012B070BDE0D60200A40E0020040F0020BE
:10465000831E012B0AD8012908D80422094B1B68A4
:10466000C3F340130521002001F008B802390129E5
:1046700007D8012805D8034B00221B68C3F3401359
:10468000F0E7704710C0034008B50449044802F041
:1046900083FABDE80840FFF7B1BF00BFD80A002089
:1046A000DC0E0020014B186802F0B8B8040F00209F
:1046B000FFF7F8BF014801F0FBBE00BF040F002068
:1046C000012070470120704710B50AF0F9FC04463C
:1046D000FFF7F6FF002814BF2046002010BD38B5B4
:1046E00002F01EFF04460AF0F9FC042817D0022845
:1046F0004FF0000508BF0124FFF7DCFF042810D0AD
:10470000022808BF0124FFF7DDFF04280BD0022890
:1047100008BF0124002D18BF0024204638BD012504
:10472000EAE70125EFE70024F7E7000008B501F00C
:104730004DFD014B186008BD280F00207047000098
:1047400070B50C4C0C490646206801F074FD01F070
:104750003DFD0546206801F02DFD3046FFF7EEFFD8
:10476000284601F027FD20680449BDE8704001F0AB
:1047700062BD00BF280F00201CD702001ED7020018
:10478000042208B511460023032000F077FF002023
:1047900008BDFFF78FBE7047FEE7000008B500F0C8
:1047A00013F8064A064B07498B4201D3FFF7E2FC98
:1047B00052F8040F43F8040BF6E700BFCC000300E7
:1047C000C00A0020680E0020044B054A9A60D3F806
:1047D000882042F47002C3F88820704700ED00E0A2
:1047E00000400000014B1868704700BFE40A002039
:1047F000014B1860704700BFE40A0020084B1B6F94
:1048000003F00703022B04D0032B05D0012B05D0A6
:10481000FEE7044B18687047034BFBE703487047FB
:1048200000800040E40A0020E80A0020002D310149
:1048300008B5FFF7E3FF054B1B6FC3F301330133EB
:10484000B0FBF3F0024B186008BD00BF00800040D1
:10485000E00A00200048704700B4C404014B186807
:10486000704700BFE80A0020054B1860054B1B6F1E
:1048700003F00703032B01D1FFF7DABF704700BF36
:10488000E80A002000800040002070470048704780
:10489000002D3101174B9868C0F304400C2826D82E
:1048A000DFE800F0092525252525071B1D251F21EB
:1048B0002300114870479B6803F04073B3F1807F79
:1048C00007D0B3F1007F06D00C4A002B08BF10467A
:1048D00070470B4870470B4870470B4870470B48B0
:1048E00070470B4870470B4870470B4870470020D3
:1048F000704700BF0040014A405DC60000093D000E
:1049000080841E0040420F000024F400C0EA210110
:1049100080BA8C010048E801005A62024FF400405E
:1049200070474FF47A707047014B1868704700BFAA
:10493000EC0A002028231B68B3F5804F03D21968C6
:10494000064A914203D0002303708360704701221E
:1049500002709A689B694260F7E700BF07B0CD5EBE
:1049600000230360704703680B600160704700001C
:10497000054A06491368184488428CBF4FF0FF333C
:1049800010601846704700BFF00A00200080012028
:10499000024B1968024B186809F07ABCF80A00202B
:1049A000F40A00207047000070B5940022460546C6
:1049B0000E4628F031FD431C02D018B1064800E035
:1049C000064870BD22463146284627F0DFFD002804
:1049D000034808BF0020F4E724E000F021E000F0E5
:1049E00010E000F013B5044601A800F051FF9DF857
:1049F0000630012223804FF4807300206380054B32
:104A00009B680A3303F01F0302FA03F3636002B0EA
:104A100010BD00BF0080E00F00F07EBE08B500F0C2
:104A20006FFE002008BD10B5044644EA010313F0F0
:104A30000303084609D1934201D1002010BD54F868
:104A4000231040F823100133F5E79200214627F0A8
:104A5000ACFDF2E710B5044628F0E6FC431C02D09A
:104A600018B10C4800E00C4810BD0C4B20469B6868
:104A70000A3303F01F020123934023F0030323446E
:104A8000984201D10020EFE750F8042B0132F7D013
:104A90000348E9E724E000F021E000F00080E00FA7
:104AA0000EE000F008B500F08DFD014B186008BD68
:104AB000A0260020014B186800F088BDA026002029
:104AC0000A460139014401F037BF00002F4B9842DC
:104AD00045D017D82E4B984238D007D82D4B984246
:104AE00034D02D4B984231D0002070472B4B984248
:104AF0002FD02B4B98422FD02A4B9842F4D12A4BDF
:104B0000586E7047294B984234D00FD8284B9842A2
:104B100028D0284B984229D0A3F53703A3F5D853C2
:104B20009842E1D1204BD3F880007047224B984245
:104B300024D003F5740303F51053984222D01F4B81
:104B40009842D1D1184BD3F890007047164B986D0E
:104B50007047154B186F7047134B586F7047124BC7
:104B6000986F7047104BD3F8840070470E4BD3F802
:104B7000880070470C4BD3F88C0070470A4BD3F871
:104B800094007047084BD3F898007047C0EA2101A1
:104B900000093D0040420F0080841E00405DC600B9
:104BA0000024F400C0CF6A000080E00F006CDC023B
:104BB0000048E80180D543020090D003007E5603F0
:104BC00038B5124B0546D3F820310C4603F00703E5
:104BD000013B032B17D8DFE803F0020A0E12FFF7A0
:104BE00001FE042305B1286004B1237038BDFFF72E
:104BF00035FE0323F6E7FFF74DFE0523F2E7FFF747
:104C000045FE0223EEE700231846EBE70080004054
:104C100037B50C460021114B0191D3F88031054680
:104C200003F00303022B0ED0032B11D0012B03D171
:104C300001A8FFF7C5FF0D210DB1019B2B6004B149
:104C4000217003B030BDFFF725FE05210190F3E789
:104C5000FFF71CFE02210190EEE700BF008000403C
:104C600038B5104B0546D3F840310C4603F003032A
:104C7000022B0BD0032B0DD0012B0FD1FFF74EFED3
:104C8000082305B1286004B1237038BDFFF74CFE3E
:104C90000723F6E7FFF745FE0923F2E7002318464E
:104CA000EFE700BF0080004038B5104B0546D3F851
:104CB00060310C4603F00303022B0BD0032B0DD005
:104CC000012B0FD1FFF72AFE082305B1286004B19C
:104CD000237038BDFFF728FE0723F6E7FFF721FE14
:104CE0000923F2E700231846EFE700BF00800040E9
:104CF00038B5134B0546D3F800320C4603F00703D2
:104D0000013B032B18D8DFE803F0020A0E12FFF76D
:104D100005FE082305B1286004B1237038BDFFF7F4
:104D200003FE0723F6E7FFF7FCFD0923F2E7FFF791
:104D30007FFD0C23800AEDE700231846EAE700BF59
:104D40000080004038B5134B0546D3F808320C46B6
:104D500003F00703013B032B18D8DFE803F0020A36
:104D60000E12FFF7DBFD082305B1286004B12370A4
:104D700038BDFFF7D9FD0723F6E7FFF7D2FD09237A
:104D8000F2E7FFF755FD0C23800AEDE700231846F4
:104D9000EAE700BF0080004038B5104B0546D3F865
:104DA00040320C4603F00303022B0BD0032B0DD033
:104DB000012B0FD1FFF7B2FD082305B1286004B124
:104DC000237038BDFFF7B0FD0723F6E7FFF7A9FD15
:104DD0000923F2E700231846EFE700BF00800040F8
:104DE00038B5104B0546D3F800310C4603F00303E9
:104DF000022B0BD0032B0DD0012B0FD1FFF72EFD73
:104E0000032305B1286004B1237038BDFFF78CFD82
:104E10000723F6E7FFF738FD0623F2E7012300201A
:104E2000EFE700BF0080004041F671320F4B10B534
:104E3000D969DA639A680E4C22F44012A04288BF06
:104E400042F480129A600B4A0B4CD2F81832A042FE
:104E500023F0020388BF43F0020301F48031C2F85B
:104E6000183211B10022014BDA6310BD000003407B
:104E7000C017530200C0074080F0FA0208B5FFF7E0
:104E8000E9FCBDE80840FFF7CFBF000002280CD0C6
:104E900007D8012814D10B4B186FC0F30130013033
:104EA0007047032807D00F28F4E7064BD3F890008B
:104EB000C0F30460F3E7034B186FC0F38020EEE704
:104EC0000020ECE700800040002307B5019325286F
:104ED00017D8DFE800F0131A1D262B353A3F444956
:104EE0004E535866161A3F1616441A262B26351AA4
:104EF0003F26663A3A3A3A262626494EFFF77EFC86
:104F00000190019803B05DF804FBFFF791FCF7E70F
:104F1000FFF774FC02460220FFF7B8FFB2FBF0F087
:104F2000EEE7FFF785FC02460320F5E7FFF780FC7C
:104F300002460320FFF7AAFFB2FBF0F04008DFE7CC
:104F4000002101A8FFF764FEDBE7002101A8FFF7BD
:104F500037FED6E7002101A8FFF782FED1E7002146
:104F600001A8FFF7A1FECCE7002101A8FFF7C0FED2
:104F7000C7E7002101A8FFF7E5FEC2E7002101A86D
:104F8000FFF72EFFBDE7094BD3F8803003F0030392
:104F9000022BBAD0032B01D00020B1E7FFF77AFC37
:104FA000AEE7002101A8FFF7F7FEAAE70080004066
:104FB00002280AD002D8012804D0704703280FD055
:104FC0000F2815D1084600F02BB80A4A0139D2F84B
:104FD000903023F0F85343EA0161C2F89010704713
:104FE000044A0139136F23F4806343EA8121116776
:104FF000704700BF0080004002210320FFF7D8BFA8
:1050000008B50120FFF760FFBDE80840034988426A
:105010008CBF022101210320FFF7CABF80F0FA02F2
:1050200010B50446FFF72AFFFFF7E6FF074A013CE9
:10503000106F20F4405040EA04301067FFF7F8FB8F
:10504000FFF7F2FEBDE81040FFF7DABF0080004036
:10505000002307B58DF80730252822D8DFE800F0B7
:1050600013212121212C32383E444A5056692121F6
:105070003821213E212121212C213821693232324F
:1050800032212121444A2E4B1B6F03F00703013BC1
:10509000032B06D8DFE803F00E020A0C04238DF878
:1050A00007309DF8070003B05DF804FB0323F6E723
:1050B0000623F4E70223F2E70DF107010020FFF7D2
:1050C000A7FDEEE70DF107010020FFF779FDE8E706
:1050D0000DF107010020FFF7C3FDE2E70DF1070125
:1050E0000020FFF7E1FDDCE70DF107010020FFF7ED
:1050F000FFFDD6E70DF107010020FFF723FED0E703
:105100000DF107010020FFF76BFECAE70C4BD3F847
:10511000803003F00303022B03D0032B05D00023C0
:10512000BDE7FFF785FB0B23B9E7FFF7B3FB0523CB
:10513000B5E70DF107010020FFF72EFEB1E700BF34
:105140000080004070B50C46252849D8DFE810F0F3
:10515000260048004800480048005C006D007E00C2
:105160008F00A000B100C200D300E4004800480056
:105170007E00480048008F00480048004800480072
:105180005C0048007E004800E4006D006D006D008A
:105190006D00480048004800A000B1008B1E042BA1
:1051A0002FD8DFE803F02B1E032E2800002502264F
:1051B000FFF764FEFFF720FF604A136F23F0070339
:1051C00033431367FFF734FBFFF72EFEFFF718FF9B
:1051D00035B9032C04D142F228030121584AD15099
:1051E00070BD41F228020121554B03269D6A99505A
:1051F000C5F34005DCE700250426D9E70025012694
:10520000D6E700252E46D3E78C1EE4B20B2C8CBFCC
:1052100000214C4B494A98BF195DD2F8803123F0E8
:1052200003030B43C2F88031DAE78C1EE4B2032C8F
:105230008CBF0021444B414A98BF195DD2F8203100
:1052400023F007030B43C2F82031C9E7CC1FE4B2B7
:10525000022C8CBF00213D4B384A98BF195DD2F813
:10526000403123F003030B43C2F84031B8E7CC1FB1
:10527000E4B2022C8CBF0021354B304A98BF195D37
:10528000D2F8603123F003030B43C2F86031A7E783
:10529000CC1FE4B2052C8CBF00212E4B274A98BFAF
:1052A000195DD2F8003223F007030B43C2F8003235
:1052B00096E7CC1FE4B2052C8CBF0021264B1F4A79
:1052C00098BF195DD2F8083223F007030B43C2F8E8
:1052D000083285E7CC1EE4B2042C8CBF00211F4BA2
:1052E000164A98BF195DD2F8003123F003030B432F
:1052F000C2F8003174E705290CD00B290CBF02213C
:1053000000210E4AD2F8803023F003030B43C2F889
:10531000803065E70321F4E7CC1FE4B2022C8CBF98
:1053200000210F4B054A98BF195DD2F8403223F097
:1053300003030B43C2F8403252E700BF0080004035
:1053400000C0004048D7020054D7020058D70200DE
:1053500058D702005BD702005BD7020061D702007A
:1053600058D7020008B5FFF773FE07280ABF024BA3
:105370004FF6FF70188808BD180B002038B5054699
:10538000FFF7A4FB214B04465A68012A05D142F2DB
:1053900004015A509A699207FCD10020FFF758FE89
:1053A000042803D1FFF76AFDFFF726FE184B24F00F
:1053B00040709D4220D0174B9D4220D0164BDA689A
:1053C00012F0060FFBD1996898609A6800F4F81003
:1053D00002F4F812904215D12846FFF709FA00208E
:1053E000FFF736FE04280FD1FFF722FAFFF71CFD66
:1053F000BDE83840FFF704BE40F00070DEE740F043
:105400008070DBE79960EAE738BD00BF00C001406B
:1054100040420F0080841E000000014070B5044629
:105420000020FFF715FE03287DD045F60E03434A02
:105430000221C2F8803041F22803D15042F2280301
:105440000121D150916D11F48031FBD16378207826
:105450001B0543EA0063A079657C0343E07843EAD7
:105460000043207943EA0033607943EA80131361F3
:105470009369E07A03F000430343E07943EA8063F1
:10548000207A43EA0063607A43EA0043A07A43EA61
:1054900000239361637B126A002B18BF0821207BD5
:1054A00022F00D0243EA020343EA800341EA0301CA
:1054B000A27B224B4FEA42161962207C34D1996AB2
:1054C000E27B21F0330141F00101314341EA021155
:1054D000996219461A4A9E6D32EA0606FBD141F2DC
:1054E000280202269E508B6D5B00FCD40B69A278CB
:1054F00023F4700343EA02530B614FF0004241F280
:105500001803CA5018B942F228030222CA5025B91A
:1055100042F228030121094AD150A37C1BB1074B59
:10552000084AC3F8802070BD9A6A22F033022A43E9
:10553000324342EA40029A62EFE700BF00C00040F7
:1055400003000140F1A7FFFFF0B54FF4D156194B0E
:1055500041788478C278057802275E6241F20406B9
:105560004F299F5142F204064FF0010728BF4F21F7
:105570009F511E69F603FCD441EA052159611201CD
:10558000417942EA04220A43017942EA41029A60DF
:10559000C2798179120142EA4112417A0A43017AC1
:1055A00042EA41025A60827A12B16FF4D1525A62D1
:1055B000F0BD00BF00000240014B1880704700BFE3
:1055C000180B0020EFF3108072B6704700B962B676
:1055D0007047EFF31180302383F31188704780F315
:1055E00011887047024B9B6803EB80000164704791
:1055F00000ED00E0F0B50024059D9DF818709C4278
:1056000002D10C4B9A60F0BD37B18C420ED250F8EB
:10561000246042F8246005E08C4252F8246003D2F2
:10562000002EF4D00134EAE7002EFBD142F82450DA
:10563000F8E700BF00ED00E0084A10B51369044622
:1056400043F00403136101F027FC30BF01F038FC84
:105650001CB9BDE81040FFF7EBB810BD00ED00E04D
:10566000FFF7EABF704770474FF04022D36E0179D1
:1056700023F030030B43D36670470000F0B54AB106
:10568000012530241D4E8D4004FB00640BB341F214
:105690001006A55130244443072904F1804404F541
:1056A000703419D80F2765688E00B74025EA0705C2
:1056B00002FA06F63543656052B9012202FA01F199
:1056C00030220E4C02FB0040A3B141F21003C15046
:1056D000F0BD42F21006DCE70F2701F18045083DDE
:1056E000E668AD00AF4026EA070602FA05F5354345
:1056F000E560E1E742F21003E9E700BF00C00340C4
:1057000041F67132034B0121DA6342F20C029950E7
:10571000704700BF0000034041F67132044B012185
:10572000DA6342F20C0299500022DA63704700BF3C
:10573000000003404FF090435A6812B19A6A002A61
:10574000FAD17047CB784A7810B55B010C7843EA00
:1057500082030A79234343EA02130C22424302F1F3
:1057600090421363012C02BF8A78024B43F8202039
:1057700010BD00BFD080034008B54FF090435A6879
:1057800002B960B15B680BB1FFF7D4FF4FF09041F5
:1057900030B10120074B1860FFF7CCFFC86008BD8F
:1057A000FFF7C8FF0223CB60FFF7C4FF0122024BC3
:1057B0001A60F4E704100048042000484FF09043BA
:1057C0005B6870B50BB1FFF7B5FF0121104B06798F
:1057D000196083784578002BC37814BF0224002415
:1057E000002B14BF042200224379DB0043EA061396
:1057F0002B43234313434FF090429360054B1960B2
:105800000378002B14BF0B460223D36070BD00BF8A
:105810000420004804100048436813B941607047F1
:105820005B685A68012AFBD159607047836813B9D5
:10583000816070475B685A68012AFBD159607047E4
:10584000C369032B9FBF00EB83020133D160C361A7
:105850007047C369042B15D84FF09842116CC902E8
:10586000FCD504339B0013650168103B116041684F
:105870000C30116050F8041C034411604FF0984242
:10588000984200D1704750F8041B1160F8E70000FF
:10589000054B5B69C3F38512827003F03F021B0B5B
:1058A00042700370704700BF00C007404FF47A7227
:1058B000054B5B689BB2B3FBF2F3022B9ABF034A22
:1058C000D05C0020704700BF0080E00F66D7020068
:1058D0000D4B984208D1A3F50033C3F88411C36D72
:1058E00043F08003C3657047084B984204D1A3F589
:1058F0001033C3F89411F2E7054B984204BFA3F5A7
:105900002033C3F8A411EAE70080054000C0054039
:105910000000064070B5054616461C4619B903201E
:10592000FFF7D2FA0146202C08D001D8ECB170BDA7
:10593000402C18D0602CFAD1042200E0082206FB8B
:1059400002F35A0802EB4112B2FBF3F2084B203A81
:1059500003EAC202AB6823F06003AB60AB681C4390
:10596000AC60EA61E3E70622E9E71022E7E700BF5F
:10597000F8FF7F00012241F20403C250CB43934061
:1059800003F00A034361416111B942F20403C250BA
:105990007047000041F204030122C25040F6AA639E
:1059A00041F20502436100238360C365C26042F295
:1059B000480210490361C361C36481500E4A836584
:1059C000904206D00D49884203D001F580418842BB
:1059D0000BD19042036506D0084B984203D003F5E3
:1059E0008043984201D10023436542F2040301221F
:1059F000C2507047FFFF01000080054000C0054015
:105A000038B50D460446FFF7C5FF41F204030122F5
:105A1000C250AB7C1BB1836843F080438360EB7C56
:105A20001BB1297D2046FFF753FF2A8A6B7B204656
:105A30001343EA891343E360D5E901122B7BFFF797
:105A400069FF6B7D1BB1A36843F48033A360AB7D1A
:105A5000EA7D1B07120502F4E00203F0E043297E11
:105A60001343A3658B1E012B1E4A1F4B21D8944262
:105A70001BD002F58042944219D002F58042944234
:105A80000CBF02224FF0FF3203EB4213022041F21F
:105A9000AC52032998500CBF41F25C0342F25C0304
:105AA0000422E2502B78636138BD0022ECE701222A
:105AB000EAE7944211D00D4A944210D002F5804298
:105AC00094420CBF02224FF0FF3203EB421302203C
:105AD00042F2AC5201299850DDE70022F5E701229D
:105AE000F3E700BF0080054000C0034000C0054050
:105AF00083691B06FCD5406AC0B2704783695B06A8
:105B0000FCD5C1637047000038B50446054D20F050
:105B100057F90FCC0FC594E80F0085E80F0000205F
:105B200038BD00BF6C15002047F6FF739A42F0B5F0
:105B30005ED003295ED8304BCE0013F8311098198F
:105B40000129857819460DD1C3785B1B23B14168C3
:105B500031F91310914202DCE818C0B2F0BD013BEC
:105B60001BB2F3E740680028F8D0B0F90030934248
:105B700004DBB0F902309342B8BF13468288FF2A93
:105B800019BFC8242827B0F90640B0F90870A4EB63
:105B900003040CBF0122002294FBF7F414448A1979
:105BA000567824B2721EA242A8BF22464FF47A77DA
:105BB00000EBC201CC888968013213FB041112B2D8
:105BC00021EAE17101F5FA71B242B1FBF7F104DAB1
:105BD00000EBC204A4888C42EAD200EBC20232F885
:105BE000040C884228BF0846A84238BF2846B4E7BC
:105BF000FF20B3E70020B1E76C1500200329F0B5C2
:105C00004DD8294800EBC10510F831106B68012907
:105C10000FD1A878E978914294BFC0EB0102C0EBA4
:105C20000202091AD2B28A42C8BF002233F9120016
:105C3000F0BDA3B3B3F902008242F9DDE978B3F90C
:105C4000004091422DD969789D8897B2FF2D4FF081
:105C5000000514BF01F1FF310239C9B20433EEB2BD
:105C6000B1424FEAC50606D903EB060CBCF808C0E2
:105C70000135BC45F3D24FF47A714A433344B3F94A
:105C800002505B68D21A022395FBF3F31A4492FB8D
:105C9000F5F2944205DB9042CADC10B2C8E7034833
:105CA000C6E72046C4E700BF6C1500200080FFFF58
:105CB00008B50448FFF728FFBDE80840012020F0A0
:105CC00081B800BF6CD70200002307B5CDE90033CF
:105CD000012369464FF0FF308DF8023020F02CF898
:105CE00003B05DF804FB4FF0402213B50024536F5E
:105CF000684643F00103536700948DF80440FFF7B2
:105D0000B3FC204602B010BD08B50248FFF736FBD1
:105D1000002008BD00B4C40470B586B001AA1546C1
:105D2000114B03F11006144618685968083303C470
:105D3000B3422246F7D14FF6FF7219889B78218033
:105D4000A3700A4B0A481B88934208BF8123DBB229
:105D50008DF80D308DF80E30FEF786FD2846FFF7E2
:105D60005DFB002006B070BD58D802000001E00FB6
:105D700000F049021FB50B4A01AB1068516803C31C
:105D80001189927A19809A70252301A88DF805301F
:105D9000FFF7DAFB6420FFF70FFC002005B05DF889
:105DA00004FB00BF6BD802006FF00402502110B555
:105DB0000A480B4C12F0800FD3B21BBF03F00F0345
:105DC000043BA3181B1802F101020CBF83F8001357
:105DD00019763D2AEED1002010BD00BF00ED00E095
:105DE00000E100E000F07AB838B501F0CDF90446E2
:105DF000D8B901F0C5FA4FF4167358430C4B00F5AF
:105E0000742000F23F20B0FBF3F02246094B0A4D0C
:105E100018600A4B196845F8220001320A2AFAD1A3
:105E200000EBC002084410441860204638BD00BF93
:105E300040420F00C815002098150020941500203E
:105E400070470000012208B5034B1A7001F08CFA6C
:105E5000024B186008BD00BF90150020C41500203B
:105E6000F8B5144C23781BB301F07EFA124B134D96
:105E70001B68134EC01A08BF0120124B124F186046
:105E80002B7856F8232046F82300111A3A680F4859
:105E9000521A0A213A600932B2FBF1F20133DBB245
:105EA0000260B3FBF1F201FB12332B70002323706D
:105EB000F8BD00BF90150020C4150020C0150020BB
:105EC000981500208C15002094150020C81500207E
:105ED000014B1868704700BFC8150020202342F20C
:105EE00074000949094A81F82D33094B1A5042F2CE
:105EF00070001A504FF40050C1F88401486041F21C
:105F000074015A50704700BF00E100E0010000A09A
:105F100000C00040054B064A1B78916DC90700D5AB
:105F200013B10028F9D1704701207047E015002017
:105F300000C000402DE9F843914B1E6F9D6A9C6A9A
:105F4000F10705F0020504F0010452D542F2700297
:105F500001279F508B4ADFF8488292F80090B9F1F0
:105F6000000F00F0F9800021117098F80020BA426B
:105F700000F2ED8042F2280202219F5041F22802F5
:105F800099509A6DD203FCD47F495A6B096822F468
:105F900070620A435A637D487D4A996900681268B5
:105FA00021F47F01024321F47F410A439A61794839
:105FB000794A19691268006821F47F6121F00F01A4
:105FC00002430A431A6175499A69096822F0FF027F
:105FD0000A439A610222002D40F0B38042F2280168
:105FE0005A50674B0122002C00F0AE8041F228018C
:105FF0005A5016F000517CD042F270024FF0010C62
:106000005F4B624F995066495E4ADFF890E182F833
:1060100000C00A7862440A705A6B5B4902F47060EF
:10602000086098695A4900F47F400860996901F452
:106030007F0139609F69FFB2CEF800701F69DFF8F9
:1060400058E107F47C67CEF800701F69DFF844E17F
:1060500007F03F07CEF8007042F2280743F807C068
:1060600041F228074FF0020C43F807C04FF0004CF4
:1060700043F807C09F6DFF03FCD442F228074FF09E
:10608000004C22F4706242F40072B0F5C84F43F83D
:1060900007C05A6302D8B1F5C80F0CD9384A414934
:1060A0009369096823F47F0323F47F4343EA0123C0
:1060B00043EA01439361324B3B491A69096822F470
:1060C0007F62880822F00F02024342EA80121A61BE
:1060D0009A6922F0FF020A439A610222002D42D1FE
:1060E00042F228015A500122002C3FD041F22801EF
:1060F0005A50002E23DA42F270024FF00041204B3A
:1061000099502A4A1278D2B142F2280201219950BC
:1061100041F22802022199509A6DD203FCD441F237
:1061200018024FF000419950022215BB42F228019B
:106130005A50134B0122FCB141F228015A50BDE8DC
:10614000F88341F228014BE742F2280150E7FFF7BC
:1061500077FE164B1F704CE7FFF782FE00F014FE2F
:1061600088F8009045E741F22801BBE742F2280198
:10617000BEE741F22801DBE742F22801DEE700BF7B
:1061800000C00040E0150020E4150020DC150020D0
:10619000D8150020D4150020D0150020CC150020E3
:1061A000E1150020200B00201C0B0020E215002030
:1061B000FFF7C0BE10B50446FFF704FA024B1C609F
:1061C000FFF704FA002010BDE815002010B5FFF716
:1061D000F9F9034B1C68FFF7F9F9204610BD00BF21
:1061E000E815002070B50C46154610B9FFF7EEFF14
:1061F00038B143682BB12A462146BDE8704000689B
:106200001847232070BDF7B50E4617461C4638B90F
:10621000FFF7DCFF04B901AC20B9232003B0F0BDC7
:1062200003B901AC8568002DF7D023463A463146C4
:106230000068A847F2E70EB477B507AB53F8046BD4
:1062400005460193B0B9FFF7C1FF04460546304645
:10625000019926F09DFAAC42064602D02046FFF78F
:10626000A9FF002ED4BF3720002003B0BDE8704046
:1062700003B07047FFF7AAFF85420446E7D02846DF
:10628000FFF798FFE3E700207047FEE74FF4005365
:1062900000204B607047012070470020704707B511
:1062A000002002AB43F8040DFFF7ADFF0198002872
:1062B00008BF4FF0FF3003B05DF804FB10B5144683
:1062C0000020FFF78FFF204610BD80F82010704798
:1062D00090F82000704790F8240070472DE9F843AB
:1062E0000026044690461D461E604F1E2B684345FF
:1062F00006D32B68002B0CBF1B200020BDE8F883C1
:10630000FFF767F9D4F81490FFF769F9B9F1000FB6
:10631000EFD0E368A269D35C07F8013FE368E26964
:1063200001339342E36008BFE660FFF752F9636907
:10633000013B6361FFF753F96368204698472B6878
:1063400001332B60D2E700002DE9F04104460D46F1
:10635000164690F82080FFF735F9012394F8237052
:1063600084F82330FFF732F92FB9154A394694F8EB
:10637000260000F0D1FB2E44B8F1000F13D0AE423E
:1063800013D02B780A2B03D123680D212046984780
:10639000236815F8011B20469847F0E7236815F895
:1063A000011B20469847B542F8D194F82600044ACC
:1063B000012100F0B1FB002084F82300BDE8F0814A
:1063C00076D8020000280DDB0122430900F01F00EF
:1063D00002FA00F0044A203342F82300BFF34F8F43
:1063E000BFF36F8F704700BF00E100E0002809DBBA
:1063F0000122430900F01F0002FA00F0024A603354
:1064000042F82300704700BF00E100E070B5044689
:106410000568FFF7DBFE844202D10020FFF7CAFEC9
:1064200095F92100FFF7E2FF95F92100FFF7CAFF78
:1064300095F92200FFF7DAFF95F92200FFF7C2FF76
:1064400000232846C4E90033A360C4E90433AB68E1
:10645000BDE87040184790F8233001223BB190F816
:106460002730022B03D180F82720184670471346A7
:10647000FBE7000038B5044690F824300D4651B1D2
:1064800043B90A4A012190F8250000F045FB012399
:1064900084F8243038BD002BFCD0044A90F8250045
:1064A00000F03AFB84F82450F4E700BF76D80200ED
:1064B000036A006818470000F8B51F46536806468F
:1064C0000C461546002B63D09368002B62D028221F
:1064D0000021204626F08DF86B682046A361AB684A
:1064E000E3612B7B2760012784F82030069B6360E3
:1064F000079BA3602B7884F821306B7884F82230D6
:10650000254B34607360254BB360254B3361254BBD
:106510007361254BF360254B3362254B84F827705C
:10652000B361244B697BF3619DF8243084F82370B8
:1065300084F826309DF8203084F82530002384F834
:106540002430FFF797FF95F90100FFF74FFF95F90A
:106550000130002B06DB5A0903F01F039F40164B46
:1065600043F8227095F90000FFF740FF95F90030DD
:10657000002B08DB0122590903F01F0302FA03F381
:106580000D4A42F821303046FFF714FE0020F8BDD6
:106590002220FCE72120FAE749630000DD620000C9
:1065A000CB620000D16200000D640000576400005F
:1065B00075640000D762000000E100E04269C06934
:1065C00082422CBF00200120704703698269D154A8
:1065D0004269036901324261C26901339342036136
:1065E00004BF00230361042380F8273070470000B4
:1065F00090F8231010B5044651B90123064A80F8DB
:10660000233090F8260000F087FA022384F8273020
:1066100094F8230010BD00BF76D80200826AD36CC4
:1066200043F00403D364704710B50446826A93694B
:106630005B06FCD5002394F82E101A4694F82D0022
:10664000FFF71CF8002394F830101A4694F82F0036
:10665000FFF714F894F835303BB1002394F832106A
:106660001A4694F83100FFF709F894F835303BB139
:10667000002394F834101A4694F83300FEF7FEFF16
:10668000A06A0021FFF776F9002010BD10B504467E
:10669000806AFFF733FAA26A0020D36C43F001034B
:1066A000D36410BD2DE9FF414FF001081C46574B44
:1066B0000A9D0193564B174600930A46CDE902887E
:1066C000544B2946FFF7F8FE0646002878D1236888
:1066D0000422AB62237985F82C30A17985F82E103D
:1066E000607985F82D00237A85F83030E37985F8D4
:1066F0002F30A37A85F83230637A85F83130237BE6
:1067000085F83430E37A85F833304346FEF7B6FF38
:1067100043460222217AE079FEF7B0FF394620682D
:106720003E70FFF76DF91421627B3B4B03EB421087
:10673000C0F8AC1594F806C061792E3203EB421311
:1067400041EA0C415960227AE37943EA0243C0F8F6
:10675000BC3585F835603B7E032B55D8DFE803F068
:106760001F02344F0123002785F835300023022211
:10677000A17A607AFEF782FFA17A627A637B42EAAD
:10678000014241F2B4515B0103F1804303F57033E0
:106790005A5041F25C0304212268D150BFB9637999
:1067A000042285F82D30A379052185F82E3042F298
:1067B00048032068C250C36C1343C364FFF7DAF880
:1067C000304604B0BDE8F081022385F8353000235F
:1067D0000422217BE07AFEF751FF41F2AC52022104
:1067E000637B5B0103F1804303F570339950217B98
:1067F000E27A42EA014241F2B8515A50CFE703230C
:10680000012785F83530B1E72326D9E7296600004E
:106810001D6600008D66000000C00340836A10B54D
:106820009B690446190609D5FFF7C8FEE0B1A06AC6
:10683000FFF75EF901462046FFF7C7FEA36A9A6C90
:10684000D20710D542F2480201219950DA6C204655
:1068500022F00102DA64FFF7CBFE20B9A26AD36C02
:1068600043F00103D36410BDA26AD36C23F0040388
:10687000D364E3E7BFF34F8FBFF36F8F054A536ACB
:1068800023F480335362D2F8943023F00103C2F82A
:106890009430704700ED00E070B5FFF7EBFF1E4C41
:1068A0001E481F4B844208BF4FF08042196B1CBF2B
:1068B00020F01F02203A21F0FF0141F0A001B2F1C7
:1068C000005F196309D3174D174E296842F0010282
:1068D00099600131DE601A61296084420CD0114850
:1068E000124A016822F01F0242F003029960DA6046
:1068F0000F4A01311A610160BFF34F8FBFF36F8FF1
:1069000005225A600B4A536A43F480335362BFF343
:106910004F8FBFF36F8F70BD600E0020C40C00203E
:1069200090ED00E0EC150020030000207F0E002019
:10693000E1FFFF3F00ED00E010B51446FFF79AFFBE
:106940001F2C194B1ED91A6BC40622F47F4242F445
:10695000807218BF20F01F00144C1A6318BF20303B
:10696000CA0618BF21F01F01226820F01F0021F085
:106970001F019A6040F0030041F003010132D8602A
:1069800019612260BFF34F8FBFF36F8F05225A60EA
:10699000074A536A43F480335362BFF34F8FBFF308
:1069A0006F8F002010BD00BF90ED00E0EC150020BF
:1069B00000ED00E0BFF34F8F0549064BCA6802F4B3
:1069C000E0621343CB60BFF34F8F00BFFDE700BF12
:1069D00000ED00E00400FA0508B5FFF7EBFF08BD85
:1069E000034B1B78002B14BF01200220704700BF0F
:1069F000181600200329F8B598BF124B06460F461B
:106A000094BF5C5C0024032805D8DFE800F002088E
:106A10000B0E44F002040C4B1D684DB9F8BD44F058
:106A20000804F8E744F02004F5E744F08004F2E7B6
:106A30006B681A68144203D05B6839463046984741
:106A40002D68EAE780D8020014160020F8B5FEF79A
:106A5000B9FD144C07462378134D83B1134E337898
:106A60001BB100F055FA00233370002000F06EFADD
:106A700018B10023237000F073FA23786BB9012159
:106A80002878FFF7B7FF01232B702A78084B384688
:106A90001A70BDE8F840FEF799BD0122054B1A7047
:106AA000F3E700BF12160020081600201016002081
:106AB000091600201316002070B5FEF783FD114D56
:106AC00006462A788AB900F05FFB044620B13046BA
:106AD000FEF77CFD204670BD00F052FC0A4B1860AA
:106AE0000A48FDF73DFF0A4B1C6000F06BF900F00F
:106AF0006BFA084B00241860012330462B70FEF718
:106B000065FDE7E7111600201C1600201416002072
:106B1000201600200C160020F8B50E460446FEF79D
:106B200051FD002E14BF0121FF21164A0546601EAB
:106B3000135C154C0B4413542278012A1CD9FFF71F
:106B40004FFF8242074617D9104E33781BB100F031
:106B5000DFF9002333700E4A137843B1002313701A
:106B60000C4A0120137000F0F1F900F0F9F93946F0
:106B70002078FFF73FFF27702846BDE8F840FEF772
:106B800025BD00BF18160020081600201016002092
:106B9000121600201316002038B541600446FEF797
:106BA00011FD054621460448FDF7DDFE2846BDE8F7
:106BB0003840FEF70BBD00BF14160020054B1B68C4
:106BC0005843054B00F5742000F23F20B0FBF3F072
:106BD000704700BF1C16002040420F002DE9F04F07
:106BE00085B0FEF7EFFC0446FDF76EFD002800F0CF
:106BF0009080DFF88881DFF88891454698F800306A
:106C000033B1554A1378013B1370002388F80030E4
:106C1000FFF7E6FEA0B101270238B84217D803A952
:106C2000002000F06DFB824688B94C4B039A1B682C
:106C30009A4274D8484A2F7013780133137006E0D3
:106C40002B7823B1444A28701378013B1370FFF767
:106C5000C7FE0128074604D9414B1B780BB900F049
:106C600019F9404EDFF81CA13078B346B84206D07F
:106C70009AF8003013B93946FFF7BCFE3770012F80
:106C80000CD9374F3B784BB9374B1B7823B900F001
:106C900039F90122354B1A7001233B70307800F02E
:106CA0007DF99AF8003013B1314B1B78337000E056
:106CB00000BF2046FEF78AFCFEF784FC04464846E7
:106CC00000F09CFAFDF70BFD0646002896D1244BF8
:106CD0001A7872B1254F18703B788AF8000013B10A
:106CE00000F016F93E70002000F030F948B300F0D3
:106CF00037F92B782BB1184A1378013B1370002316
:106D00002B7000219BF80000FFF774FE00238BF826
:106D100000302046FEF75AFC05B0BDE8F08F154B59
:106D20001E6800F055F903993044884282D202234C
:106D3000091ACDE900A3104A5346484600F086FAE6
:106D400085E7012000F02AF92046FEF73FFCFEF718
:106D500039FC0446C7E700BF181600200C160020B7
:106D600012160020081600201A1600201016002007
:106D700009160020201600204D6A00001B16002076
:106D8000F01500201316002038B50A4D2B787BB182
:106D9000094C237863B100F0E3F8084B012118781F
:106DA000FFF728FE01232B700023054A2370137080
:106DB00038BD00BF0816002012160020091600205A
:106DC000131600202D4A2E4B116F2E4801F007019B
:106DD000D0B51960D2F820318069032900F0020093
:106DE00041D003F00703991E4B424B41D2F8801269
:106DF000254C01F001010B4324490B7060B33BB9F2
:106E0000D2F8003103F003035A1E534253410B7072
:106E10001A4BD3F8003103F00303022B25D0032BC8
:106E200026D0012B27D1FDF719FD0027154B02466F
:106E3000DB68461EC3F30B030133154803EB8301E4
:106E4000E0FB016700233046394625F0C5F9FFF71E
:106E5000B5FE2368184420606420FFF7AFFE236866
:106E600018442060D0BD0123C0E7FDF75DFDDCE7DD
:106E7000FDF70AFDD9E70020D7E700BF00800040FA
:106E80005427002000C001402816002026160020AC
:106E900040420F00FEF7E6BB074B1A7852B10022C2
:106EA0001A70064A136F23F0070343F001031367B8
:106EB000FDF7BEBC704700BF2416002000800040D4
:106EC0000D4B10B51B78B3B1022000F0C7FB90B199
:106ED00000F044FA78B1094B9A6DD20302D5DB6D0C
:106EE0009B0708D40124064B1C70FEF7ABFF41F250
:106EF0002803024AD45010BD2616002000C00040CE
:106F0000251600200122014B1A707047241600201C
:106F100038B50B4B1B788BB10A4D2A7862B90A4CF5
:106F2000A36DDA0302D5E36D9B0707D4FEF78AFF52
:106F300041F228030122E25000232B7038BD00BF2C
:106F4000261600202516002000C00040034B1B78A9
:106F50000BB1FEF7DFBF0120704700BF26160020EF
:106F600008B5FEF780FB0A4A0A49136F096823F047
:106F700007030B431367084B1B782BB142F228031E
:106F8000012102F58042D150BDE80840FDF750BC18
:106F900000800040542700202616002002280AD036
:106FA00003280BD001280CD1064A136923F00403EF
:106FB000136130BF70470020FEF73EBB0020FEF794
:106FC0004FBB704700ED00E04FF4C870FFF7F6BD0F
:106FD00008B5054B187818B1FEF77AFF00EBD00022
:106FE000024B1B68184408BD2616002028160020F6
:106FF0000122014B1A70704726160020094B07B575
:10700000986800F16043B3F5C03F07D30023CDE992
:1070100000334D23044A1946FEF7ECFA03B05DF83D
:1070200004FB00BF00ED00E000180020104A30B55E
:10703000136841611546ABB91060836011E0091B0C
:107040009C6841611A467CB123465C698C42F6D942
:10705000002CF4D052B19060836013B15A69511A78
:10706000596130BD0022F0E72346F4E72860F3E7DA
:107070004C19002010B500F099FA094B094A19681B
:1070800031B11368C41A4B69A34203D31B1B4B6174
:10709000106003E0C01A002310604B6110BD00BFF8
:1070A0004C1900203819002038B50F4D02202B68EC
:1070B0005C690E4B1B681C4400F0ACFA204600F0E3
:1070C0007DFA00230A492A680B70D088800702D510
:1070D00001230B7038BD9268002AFBD0506903442D
:1070E000012BF2D9F6E700BF4C1900203819002017
:1070F0004019002070B59DF8145016460571002502
:10710000049A8560BDF818500446C5800260C0E945
:1071100003360D4629B961610BB11146984796B106
:107120003546FEF756FA0646FFF7A4FF29462046E5
:10713000FFF77CFF054B1B68A34201D1FFF7B4FFAB
:107140003046FEF74CFA002070BD00BF4C190020FD
:1071500000210C4A13687BB183420AD1836879B15C
:107160008B6083681BB15A6941690A445A610020E7
:10717000704719469B68EEE70028EFD00220704761
:107180001360EEE74C19002070B5FEF722FA144E9A
:1071900005463478FCB9134B1C60134B1C60134B31
:1071A0001C8000F0C9F9012000F034FA00F080FAE8
:1071B0000F4B0246186020B92846FEF710FA23202C
:1071C00070BD23460B4840F2E73125F005F80A4B25
:1071D0001860012333702846FEF701FA0020EFE71C
:1071E000341900204C1900203819002042190020C1
:1071F0004819002018FCFFFF3C1900202DE9F04140
:107200000546F8B1FEF7E5F90F4F0646FFF732FFE6
:107210002846D7F80080FFF79BFF044628B1304688
:10722000FEF7DDF92046BDE8F081A8453B6803D1B3
:1072300023B1FFF739FFF2E7002BF0D1022000F075
:10724000F5F9ECE72224EDE74C190020F0B50D46E6
:1072500085B016461F46044680B1FFF7CFFFBDF844
:107260002C30002202939DF828302946CDE9007386
:1072700020463346FFF73EFF05B0F0BD2220FBE776
:1072800038B50C46054698B191B100230B70FEF756
:10729000A0F90121074B1B680BB122781AB1FEF748
:1072A0009EF9002038BD9D420CBF21709B68F3E71A
:1072B0002220F7E74C190020F0B51F46002387B0C5
:1072C0000D4616468DF817300446A0B10DF1170192
:1072D000FFF7D6FF9DF817207AB9BDF8343029465C
:1072E00002939DF830302046CDE900733346FFF716
:1072F00001FF07B0F0BD2220FBE70320F9E7000003
:10730000F8B507460E46FEF764F900240546114B12
:107310001B6823B92846FEF762F91B2015E05A695D
:107320001444DA88BA4213D100F040F90A4F3B689E
:10733000C01AA0420AD200F039F93B68C01A201ADC
:1073400030602846FEF74BF90020F8BD0020F7E733
:107350009B68DEE74C19002038190020014B187893
:10736000704700BF4019002038B5FEF732F90546D6
:1073700000F01CF904462846FEF731F9204638BDD6
:10738000014B1868704700BF481900200A4B10B520
:107390001B680C4683420CD3084B4FF47A72196871
:1073A0000023A0FB010124F017FF01302060002022
:1073B00010BD2120FCE700BF3C1900204819002027
:1073C000104B10B51A684FF47A73A0FB0301A2B1F9
:1073D000531E134211D1B2FA82F2C2F11F02C2F15E
:1073E0002004A2F1200301FA04F420FA02F222435D
:1073F00021FA03F342EA030010BD002324F0ECFE5F
:10740000FAE700BF48190020C2072DE9F84F0446EB
:107410000BD53F4A138801339BB21380FFF72AFE36
:107420003C4B1B680BB1FFF73FFEA3076DD500F087
:10743000BDF8394F00263D688046451BFEF7C9F868
:10744000B24683463246334B1C6814B16369AB4283
:1074500014D9012E314B51D1D288022A4ED11E703F
:10746000002C4ED06369C7F800805D1B6561FFF793
:107470001BFE5846BDE8F84FFEF7B1B823462A4632
:10748000C7F800805969914209D8187994F804C066
:10749000521A844588BF1C469B68002BF2D158467F
:1074A000FEF79DF8D4F814B0C4F814A0FEF791F8D4
:1074B00081462046FFF74CFE4846FEF790F82369C8
:1074C0004BB1FEF786F8814621692046FFF7AEFDF5
:1074D0004846FEF784F8E36813B1216820469847D0
:1074E00000F064F8D844A5EB080581460544FEF792
:1074F00070F8013683462246C846A4E700221A7077
:10750000AEE7022000F092F8B3E7BDE8F88F00BFC5
:10751000421900204C19002038190020441900207D
:1075200010B5FEF756F8034B1C78FEF758F82046C6
:1075300010BD00BF441900201FB50024184B186867
:107540009A88029053F8060FADF80C201B79009032
:1075500002A88DF804308DF808408DF80C40FEF735
:107560002DF9694601208DF80040FEF7EBF84FF049
:1075700090431F219A6922F01F029A61094A116003
:107580009A6A12F00802FBD11A620120FEF7F4F8A1
:107590004FF48062044BC3F880211A6004B010BD20
:1075A00084D802001420004800E100E04FF090432E
:1075B0009A6A1207FCD4186A704700004FF0904294
:1075C000936A1907FCD4136A116C5269120704D428
:1075D000CA1A022A01D899420ED1C21A012A98BFAA
:1075E000981CB0F1FF3F28BF01304FF09043186462
:1075F0009A6942F008029A61054A13783BB14FF04C
:107600009041CB6B43F00203CB63002313707047B0
:10761000240B002082074FF0904200F00103916993
:1076200048BF43F008030B4393617047830700F0A2
:1076300001020AD50121084B42F0080219704FF0EF
:107640009041CB6B23F00303CB634FF090418B69E8
:1076500023EA02038B617047240B00204FF0904314
:1076600001285B6904D0022805D1C3F3C00070472C
:1076700003F00100704700207047000010B5FDF7CF
:10768000A8FF4FF0904304465B691A07074A03F0CE
:10769000010003F00D0348BF40F002001360FFF744
:1076A000B3FE2046BDE81040FDF799BF1420004806
:1076B0001C20FDF709BC08B5FCF71AFFFCF780FF9A
:1076C000FCF77FFFFCF78AFFBDE80840FCF78FBF9F
:1076D00008B5FCF78EFFFCF78DFFFCF78CFFBDE8CB
:1076E0000840FCF78ABF38B50446FDF76BFF054636
:1076F000204624F03BFF04462846FDF767FF20465E
:1077000038BD70B504460E46FDF75CFF31460546B0
:10771000204624F0EBFE04462846FDF757FF20469E
:1077200070BD38B50546FDF74DFF0446284624F0E8
:1077300025FF2046BDE83840FDF748BF30B5084C6E
:1077400063680BB9184630BD9D692D78854205D117
:107750005D688D4202D15D789542F3D00834EFE741
:10776000FCD802003822002124F043BF10B50446A3
:1077700058B1406B18B123689B695B6998472046F4
:10778000BDE81040382100F0CBBB10BD38B5054630
:107790000C4659B13822002124F02BFFA3691B6944
:1077A0009847686320B100202C6038BD0148FCE791
:1077B0000148FAE7009FFFFF809EFFFF30B4046896
:1077C000B4B12569AD0702D46568954210D1012B8B
:1077D0004260037203D06578033D022D04D8A3698B
:1077E0009B68406B30BC184713B9A369DB68F8E7A6
:1077F000014830BC704700BF009FFFFFF0B4056830
:10780000049E15B91448F0BC7047002434606C69BC
:10781000ECB195F801C0BCF1010F0BD1A24218D117
:107820003260AA6954680A46A446F0BC90F9081070
:10783000406B6047994208D1C369002BE2D1B2FB8B
:10784000F4F304FB1322002ADCD10448DBE70448EC
:10785000D9E70448D7E700BF009FFFFF809FFFFFE5
:10786000809CFFFF809DFFFF016810B50446A1B119
:1078700000204B781060DA1E042A0DD9092B0BD09A
:107880000A78483A012A07D9012B08D1E3698342D3
:10789000A0F5C54008BF002010BD0248FCE7024823
:1078A000FAE700BF009FFFFF809FFFFF10B504466F
:1078B00003F012FC2046BDE81040FFF732BF10B5C0
:1078C00024210120FFF71DFF044608B103F000FC4E
:1078D000204610BD03F021BC03F004BC03F020BC23
:1078E0002DE9F047B2F5C07FADF50A7D0746884621
:1078F000154600F29D804FF4D072002122A824F09A
:1079000078FE0DA803F0E4FB2B0A00248DF89A30D2
:10791000302328AE41462A4630468DF89F30ADF8D8
:1079200098408DF89B5024F040FE802373552346E9
:107930000DF1140803F808300133202BFAD14FF46D
:10794000807241460DA803F0CDFB0446002851D1BA
:10795000064619351022002101A824F04AFEAA4645
:107960000DF187090DF1030309F1100113F8012F3F
:1079700019F8010F424049451A70F7D101ABBAF12D
:10798000100F1A464FF001010DA894BFAAEB0A0A86
:10799000AAF1100A03F0C4FB044658BBBAF1000F69
:1079A000E0D116AB9819102201A924F0FEFD9DF834
:1079B0008B3010360133302E8DF88B30CAD14FF416
:1079C000807216A90DA803F08DFB044690B93D46C0
:1079D00007F130061EAB1A4601210DA803F0A0FBEB
:1079E000044638B9284610221EA9103524F0DDFDC2
:1079F000AE42EFD10DA803F06FFB4FF4D07122A877
:107A000000F08EFA302116A800F08AFA20214046B4
:107A100000F086FA102101A800F082FA1CB1302192
:107A2000384600F07DFA20460DF50A7DBDE8F08766
:107A30006FF03704F7E72DE9F0418CB004460E46AD
:107A400030220021684624F0D4FD4FF0000804F1F4
:107A500020070DEB080304F1100111F8012D01328C
:107A6000D2B20A700AB9A142F7D1224601213846A2
:107A700003F056FB0546E8B908F11008B8F1300FDD
:107A8000E7D1731E0DF1FF322F3612F8011F13F8E4
:107A9000010F4140B3421170F7D14FF48072694633
:107AA000384603F01FFB054620B9102208A92046DE
:107AB00024F07BFD6846302100F032FA28460CB0F5
:107AC000BDE8F0812DE9F04117468269E0B0B2F5DA
:107AD000C07F044688461E4644D8C2F5C073B342F0
:107AE00040D3C6F5C0739B1ABB423BD34FF4C07260
:107AF0000021684624F07DFD636CA2696946A06C94
:107B0000984728B16FF03305284660B0BDE8F08192
:107B1000A5693EB1636C32466946A06C984700285F
:107B2000F0D13544B8F1000F07D037B10DEB0500A7
:107B30003A46414624F039FD3D442A4669466846A6
:107B4000FFF7CEFE054638B969462046FFF773FFBA
:107B5000054608B9012323614FF4C071684600F05F
:107B6000DFF9D1E76FF03705CEE710B54C220021E1
:107B7000044624F03EFD4FF0FF33236110BD10B5E5
:107B8000044640B1203003F0A7FA2046BDE810407B
:107B90004C2100F0C5B910BD0023FFF793BF2DE9BC
:107BA000F04105468846144688B0202200216846E8
:107BB00005F120061F4624F01CFD304603F088FA2C
:107BC000AB69C5E911840BB92023AB612C69002C8A
:107BD00005DAAC692F2C8EBF00240134640842F210
:107BE00010734FF48072EB616946304603F07AFA05
:107BF00028B923460E9A39462846FFF763FF08B096
:107C0000BDE8F0812DE9F041B2F5806F90B00546F6
:107C10000F4616469846169C5CD8B4F5807F5CD813
:107C20003022002104A824F0E4FC2A69EB699A427E
:107C300001DC6B699BB1224641462846FFF7ACFF49
:107C4000044620BB05F120082EBB04A92846FFF7F7
:107C5000F2FE044698B92B6901332B610FE0002C2A
:107C6000F0D02246414604A8FFF73AFE044630B958
:107C700004A92846FFF7DFFE04460028E2D03021A1
:107C800004A800F04DF91021684600F049F920469B
:107C900010B0BDE8F08105F1100212F8013D01338A
:107CA000DBB213700BB9AA42F7D16B462A46012109
:107CB000404603F035FA04460028E0D1102E344641
:107CC00028BF102438462246694624F06EFC27441B
:107CD000361BB9E76FF03504D9E76FF03704D6E704
:107CE000002307B50093FFF78DFF03B05DF804FB99
:107CF0002DE9F041202B8AB080460E4617461D46DE
:107D000009D9002302AA2946384601F0C9FE0446D3
:107D100008BB202502AFD8F800108DF804608DF85C
:107D2000055008F1040681B101230222C8F8003091
:107D300001A9304603F0B8F9044660B92A4639462D
:107D4000304603F0B1F9044605E0304603F09AF9F5
:107D500004460028E8D002A8202100F0E1F82046DF
:107D60000AB0BDE8F0812DE9F043002680460446C4
:107D700037466FF03B05B146A3B0D8F870309F424C
:107D80000BDB002E08BF6FF03C0502A8802100F03D
:107D9000C7F8284623B0BDE8F083D4F88430656F77
:107DA000012BCDF8049001AB4FF0800202A9A06F27
:107DB00008BF0126A84705460028E6D1019B53B11C
:107DC00002AAF9B24046FFF793FF0028E2D1E36F21
:107DD000019A1344E36701371434CEE738B5002520
:107DE0000446282205672946743024F002FC204608
:107DF00040F8045B03F042F9226F012A0BDC1423E4
:107E000003FB024304492020C3E91D1501210A4454
:107E1000C3E92001226738BDCDAB000038B5044668
:107E20000025043003F02CF92567282104F17400A3
:107E300000F076F8256038BD2DE9F041202A88B0A1
:107E400006468846174667D84FF48175013D5DD0D8
:107E5000336F002B5DD03046FFF785FF0446D8BB5B
:107E6000034632460120D6F870E0A6453CDC0028E7
:107E7000ECD01F2BEAD9202200216846351D24F0C2
:107E8000B8FB6946284603F016F9044620BB28468D
:107E900003F0F6F8284603F0F1F82146284603F0EF
:107EA000F1F80446C0B920226946284603F0FCF8E0
:107EB000044688B903466A462021684601F0F0FD71
:107EC000044648B903461421326F9A4219DC3A46F7
:107ED0006946404624F069FB2021684600F020F8FE
:107EE000204608B0BDE8F081D2E91FC18C4538BFFB
:107EF0000020D2F884100134012908BF63441432F1
:107F0000B3E701FB03650133E867DEE76FF03B048D
:107F1000E2E76FF03F04DFE76FF03B04E0E70000CB
:107F20000A4619B1024B00211B681847704700BF71
:107F3000280B0020B0F5885F04D00AD841F2010375
:107F4000984216D111F0070F14BF6FF08600002081
:107F50007047B0F5905FF5D0B0F5105F09D121F012
:107F60004003802BEED0B1F5807FEBD06FF0860020
:107F700070476FF0850070470B8813B102889A42F2
:107F80000AD10B6A43B94B884BB142889A420CBF65
:107F900000206FF0860070476FF08600704718462B
:107FA0007047F8B51646026A0446B2420D461F46AF
:107FB0000DD8C169284624F0F8FA206A0021321A47
:107FC000284424F016FB0020236A3B60F8BD6FF0C4
:107FD0008900FBE737B504462379DD0715D503F0A3
:107FE0000605022D11D0657995420BD89B060CD45D
:107FF00001AB04F1080001F005FA08B9019B6371B7
:1080000003B030BD6FF08900FAE76FF08800F7E742
:1080100010B4144600F0FE42B2F1C06F08BF20F465
:108020007C5000F0FA42B2F1806F44D1324A904263
:1080300029D014D8314A904207D8013A904234D21C
:108040002F4A904207D101221EE02E4A904234D09E
:108050000432904231D000205DF8044B70472A4A28
:10806000904226D007D8294A90421CD00132904233
:10807000F1D1042208E0264A904218D00132904201
:10808000E9D1062200E0052242F20130814225D0EA
:1080900015D842F20200814228D042F20400814207
:1080A000D9D1092013E00322EEE70222ECE70822EF
:1080B000EAE70A22E8E7174AC3E70722E4E7B1F54F
:1080C000105F15D042F203408142C4D1052003B1B4
:1080D000187021465DF8044BFFF730BB402C09D0E7
:1080E000802C4FF00400F2D1C024F0E70720EEE727
:1080F0000220ECE70320EAE70100C004010160046C
:108100000044400401008004050000060200C00491
:10811000010040060200C00230B400F0FE45B5F197
:10812000405F0BD120F0774424F47C0444F00054E9
:10813000B4F1005F02D130BC01F051B86FF085009E
:1081400030BC7047814230B540D0224B224A01EA10
:108150000304944206D021F44034204D24F0FF045F
:10816000AC4218D10340934206D020F440331B4A5E
:1081700023F0FF0393420ED110F0FF030BD0184AF7
:1081800043F08073934206D1484030F0FF030CBFA8
:108190000120002030BD00F0FE43B3F1405F17D155
:1081A00020F0774323F47C0343F00053B3F1005FE6
:1081B0000ED101F0FE43B3F1405F09D101F47C011F
:1081C00041F040510B1A58425841E3E70120E1E7E2
:1081D0000020DFE700FFFEFF000002100000041097
:1081E000FF0000012DE9F34188461E46002302A945
:1081F00041F8043DC8F80030174601F023FA05465F
:10820000C8B9019C238803F4E043B3F5804FE368C9
:1082100008BF27F0010737EA030310D14EB13146FA
:108220002069FFF78FFF20B931466069FFF78AFFA9
:1082300028B1C8F80040284602B0BDE8F0816FF0D0
:108240008405F8E7F8B51646002204460F461A6082
:108250001946406801F04EFA054630BBD4E90101E9
:1082600001F04AFA054600BBE36823F4F85323F013
:108270000303FBB94FF6F87362889A4217D8238B31
:1082800023F00103B3B93146384601F013FA05462D
:1082900058B90FCC37683E460FC694E8070086E809
:1082A00007003B8B23F001033B832846F8BD6FF0AA
:1082B0008505FAE76FF08605F7E702791AB1D0E98C
:1082C000071201F059BB10467047F0B40488049EB1
:1082D00004F4E045B5F5805F0CD0B5F5005F09D03A
:1082E00044F2010724F4405CBC4506D1B5F5804F4B
:1082F00000D03EB9F0BCFFF754BE04F44F44B4F5CF
:10830000824FF3D06FF08500F0BC704710F17F0F03
:10831000BEBF404200F4FF40404210F16C0F4ED00F
:1083200000F3CE8010F5874F00F066816DDC10F50C
:10833000A14F26D035DC10F5C34F00F0728116DC5A
:1083400010F5C64F00F0588108DC10F5C84F4FD02B
:1083500010F5C74F3ED16FF09600704710F5C54F2E
:1083600076D010F5C44F35D16FF09500704710F5F9
:10837000A54F3DD008DC10F5C24F69D010F5C14FB4
:1083800028D16FF08500704710F5A34F00F04981A8
:1083900010F5A24F5CD010F5A44F1BD16FF09100E7
:1083A000704710F5994F53D017DC10F59D4FE8D06A
:1083B00008DC10F59F4F4BD010F59E4F0AD16FF09F
:1083C0008900704710F59C4F00F0168110F59B4F07
:1083D00000F027816FF08300704710F58B4F07D0B6
:1083E00009DC10F5984F00F0078110F5974FF1D197
:1083F0006FF09200704710F5894F00F0128110F570
:10840000884FDCD010F58A4FBAE710F5725FB8D00C
:108410002ADC10F5814F1BD00FDC10F5844F17D0EC
:1084200005DC10F5864F96D010F5854F92E710F5D4
:10843000834FDDD010F5824F95E710F57A5F07D0B6
:1084400009DC10F57E5F00F0EC8010F57C5FC1D197
:108450006FF08600704710F5765FF9D010F5745F05
:10846000F6D010F5785F98E710F5665F89D013DCD9
:1084700010F56C5FECD008DC10F5705F02D010F5E1
:108480006E5FA7D16FF08400704710F56A5F3FF40C
:1084900078AF10F5685F73E710F17A0FA8D006DCAB
:1084A00010F5645F00F0A88010F5625F9FE710F19F
:1084B000700F9DD010F16E0F3FF44DAF72305FE73B
:1084C00010F1290F94D059DC10F13A0F29D02BDC90
:1084D00010F1600FBCD00EDC10F1660FB8D005DCD7
:1084E00010F16A0F00F09D806830B0E710F1640F62
:1084F000AED06230ABE710F1510FA9D008DC10F11B
:10850000560F79D054307FF465AF6FF08800704714
:1085100010F1400F05D0FFF65DAF3D3001283FF66A
:1085200059AF6FF09300704710F1340FF9D010DCA1
:1085300010F1370F3FF45CAF05DC10F1390F3FF459
:1085400057AF38301CE710F1360F3FF41AAF353013
:108550004DE710F1310F3FF44BAF05DC10F1330F55
:108560003FF446AF32300BE710F12D0F3FF440AF30
:1085700010F12B0F3FF43CAF2F3038E710F1130F01
:108580003FF436AF25DC10F1220F0FDC10F1240F81
:10859000BFF6F7AE10F1270F3FF42AAFFFF658AF42
:1085A00010F1260F3FF4EDAE253020E710F1180F43
:1085B0003FF4E7AE05DC10F1200F3FF4E2AE1930D6
:1085C00015E710F1160F3FF4DCAEFFF611AF1430D3
:1085D0003DE710F10C0F3FF43BAF10DC10F1100F32
:1085E0001FD004DC10F1120F06D01130FFE60E3060
:1085F0003FF42EAF3FF72CAF6FF094007047821D11
:108600003FF426AF05DC10F10A0F3FF421AF08302C
:10861000D4E6831C3FF4C2AE00283FF4DDAE043044
:1086200015E76FF08C007047F8B5C46906460F4631
:10863000154664B911460120FFF763F8F06148B1AF
:1086400035622A46394623F0B0FF2046F8BD6FF068
:108650008A00FBE76FF08C00F8E7F7B504460F4699
:10866000164652B1038803F4E045B5F5805F07D0A4
:10867000B5F5005F04D05B0419D46FF0850014E0F9
:10868000B6F1005F4FEAC605F7D24FF6F872954291
:10869000F3D829461846FFF74DFC30B93246394623
:1086A0002046FFF7C1FF00B9658003B0F0BD4488E4
:1086B00002AB43F8044D00F06EFDF6E738B5044612
:1086C000C06910B1216AFFF72BFC0025E069FFF7B4
:1086D00028F8C4E9075524222946204623F089FFBB
:1086E000284638BD08B1FFF7E9BF704713B5044607
:1086F000C0B101A900F0A6FF044698B901984368EB
:108700001B0A12D10024019B1A792AB1986801F042
:1087100087F8002C08BF04460198FFF7CFFF002C14
:1087200008BF0446204602B010BD00F031FD10F134
:10873000860F0446E7D1E5E7F0B51C46002385B077
:108740000F4616462360012203A9FFF74BFDA8B987
:10875000039D2060A6B1234632463946284600F0E4
:10876000D7FC10F1860F09D16B681B0A06D1009364
:108770003246234639462846FFF7A7FD05B0F0BD2F
:108780006FF08900FAE7F0B51D46002385B00F466B
:1087900016462B601A4603A9FFF724FDC8B9039CAF
:1087A000286023885B0416D5C6B12B46324639466D
:1087B000204600F0B5FC10F1860F0AD163681B0A51
:1087C00007D101233246009339462B462046FFF756
:1087D0007CFD05B0F0BD6FF08600FAE76FF0890010
:1087E000F7E72DE9F3411F46002305468846CDE90A
:1087F0000033164662B301AB6A463946FFF722FDE5
:108800000446B8B9009843681B0A1CD00146334699
:108810004246284600F074FC044658B9009E29469A
:108820003046FFF7A9FB044620B93046FFF745FD67
:10883000044620B10098FFF755FF00233B802046F7
:1088400002B0BDE8F08132464146FFF706FFE3E79C
:108850006FF08604F3E738B5046805466CB1047917
:1088600014F020040BD1083000F0E1FD2B792C60CE
:1088700003F0E00364F345132B71204605E010225A
:10888000002123F0B6FE6FF0880038BD2DE9F743D4
:10889000054616469946002B0CBF4FF400624FF474
:1088A00080622B680846002B40F0B380334601A954
:1088B000FFF798FC0746002840F09E80584B334055
:1088C000B3F1207F68D1F4B244F0807404F17F43A7
:1088D000013B022B60D904F17F43043B012B5DD99E
:1088E000504B9C425ED001339C425DD001339C4290
:1088F0005CD001339C4253D001339C4252D00133AF
:108900009C4251D003339C424CD001339C424BD00B
:1089100001339C424AD001339C420CBF40240024C6
:108920002B79B9F1010F03F0F2036FF345132B71AB
:1089300005F10800019932463AD100F0FCFC80466E
:1089400018F1860FC6F3052226F47C5033D1019B23
:108950005968090A60D12B7906F0FE4643F02003DE
:1089600061F3000361F3820361F3410361F3C30325
:1089700061F30413B6F1007F28602B714FF01002F1
:10898000284614BF6FF086076FF0850723F031FE8D
:10899000384603B0BDE8F0831024C1E71424BFE7D4
:1089A0004024BDE71C24BBE72024B9E73024B7E707
:1089B00000F018FDC3E7B8F1000F2DD12B791A494B
:1089C00069F304132B718E42DBB20CBF43F0060334
:1089D00068F3410328606C712B71AAB1032A0DD989
:1089E0006B7993420DD36A71B8F1000F0CD0284611
:1089F000FFF731FF4746CBE78046F8E76FF0850881
:108A0000F5E76FF08608F2E72B7943F001032B714D
:108A1000BEE76FF08807BBE7002ADFD1E7E700BFBA
:108A20000000C07F080000010100C0020123FFF721
:108A30002DBF38B503790446D80703D46FF08805F5
:108A4000284638BD03F006000228F7D02068002829
:108A5000F4D043F0080323719B06EFD404F108001F
:108A600000F0C2FC05460028EAD02046FFF7F3FEDE
:108A7000E6E72DE9F0419846036804460F4616469E
:108A800023B96FF088052846BDE8F081C8F80020BA
:108A90001AB12121384623F0ACFD2379DB06F0D54D
:108AA000324639462046FFF795FA054620466DB90D
:108AB000FFF7D1FE054618B96379C8F80030E2E740
:108AC00032462121384623F094FDDCE7FFF7C3FE50
:108AD000D9E710B504460068A8B100F0FE40B0F137
:108AE000806F14D1237904F108001B070CD400F027
:108AF0008EFD00202379206003F0F20360F3410330
:108B00006071A071237110BDFEF730FEF1E76FF0C8
:108B10008800F8E72DE9F74F0446012B1F4623682C
:108B20001646084614BF4FF400724FF48072002BB3
:108B300040F0908006F0FE43B3F1806F40F08D80EE
:108B4000334601A9FFF74EFB054600287CD1237967
:108B5000464A60F3000360F3820360F3C303964266
:108B60002371DBB20CBF60F3410343F0020304F155
:108B70000809012F6071A07123710199324648469E
:108B80000CD100F06CFC804658B92660237943F084
:108B900001032371284603B0BDE8F08F00F0B6FC56
:108BA000F1E710F1860F50D1019B5B685FEA132B50
:108BB0004BD14846FEF7D6FD01992379B1F802A0C2
:108BC00043F008032371098826605B46524630460D
:108BD000FFF71EFA0146002837D04846FEF7D6FDBB
:108BE00000283DD101993B465246C9694846FEF7E7
:108BF000E5FD002834D106F0FF43B3F1906F21D09A
:108C0000019B1B8803F4E042B2F5005F04D1012010
:108C1000C3F302239840C0B27302A071B6D5134BC0
:108C20009E42B3D0019B1B8803F4E042B2F5005F83
:108C300005BFC3F3022201230023934008BFDBB228
:108C40006371A3E70120E7E780462046FFF741FF75
:108C500045469FE76FF088059CE76FF0860599E72A
:108C6000FFF754FB8046002890D0EEE70044400414
:108C70000123FFF74FBF00002DE9F04F04460068C5
:108C800087B00E46DDE910C815461F46002800F0E3
:108C90009A8094F804E00EF00609B9F1020F00F092
:108CA00092801EF0080F0DD1CDE900C804F1080034
:108CB00000F083FC034610B320460393FFF709FF3F
:108CC000039B1CE000F0FF43B3F1906F1FBF626A8B
:108CD000A3795219B2FBF3F20CBF2B465343634501
:108CE0006ED83A4B04F1080A98425FD1A368D3F8D2
:108CF000149000230593C8F8003025B900231846C6
:108D000007B0BDE8F08F606A38B3A9EB000BAB4544
:108D100028BFAB4609305A46504423F046FC636AEC
:108D2000A5EB0B055B4499455E44636215D105AB29
:108D300000934A463B4604F111015046FEF75EFDA2
:108D4000FFF7E4FA03460028B6D1D8F800200599C9
:108D50000A44C8F800200F4460620DF1140B16E0BD
:108D60003B464A463146CDF800B05046FEF746FD38
:108D7000FFF7CCFA034600289ED1059AD8F80030B8
:108D8000A5EB090513444E441744C8F80030A94523
:108D9000E6D9002DB2D0606A2A46093031465044E7
:108DA00023F003FC636A1D446562A7E73B462A463D
:108DB000CDF800805046FEF721FDFFF7A7FA79E7CE
:108DC0006FF0890378E76FF0880398E70044400468
:108DD0002DE9FF41054600680F4690461E460028D3
:108DE00045D02C7904F0060CBCF1020F3FD02407CB
:108DF00014D405F1080000F0F5FB04462B791B079D
:108E000003D510216846FFF78BF854BB2846FFF7BF
:108E100060FE0446204604B0BDE8F0816B6A2BB1C9
:108E2000144B984217D0144B984214D032466946DE
:108E300005F10800FEF718FDFFF768FA0446002860
:108E4000DCD13268002AD9D0424507D86946384675
:108E500023F0ABFBD2E76FF08604CFE76FF0890415
:108E6000CCE7002328463360FFF733FED2E76FF0EC
:108E70008804CFE7004440040001600470B5114D40
:108E800095F8F020D30719D50C464618A435B4F54B
:108E9000806FA6EB040104D822460B48FEF720FFA2
:108EA00005E04FF480622846FEF71AFF18B1BDE8CE
:108EB0007040FFF72BBAA4F58064E8E76FF08800F4
:108EC00070BD00BF50190020F41900202DE9F047B3
:108ED00006469A4606F0FE4386B0B3F1405F084668
:108EE000DDE90E859146109F1CD133464FF4805228
:108EF00005A9FFF777F9044658B9CDE90157CDF830
:108F0000008053464A4605993046FFF705F9044666
:108F100020B129464046FFF7B1FF3D60204606B02C
:108F2000BDE8F0876FF08604F3E700232DE9F341F5
:108F3000CDE90033438805468846002B5DD001AB60
:108F40006A46FFF77FF90446002843D1009B5B681F
:108F50001B0A39D10099284600F07BF910F1860FE1
:108F600004463ED16B681B0A34D1009EEB696F88C2
:108F7000308813B92B6A002B36D100F4E043B3F5E7
:108F8000805F02D0B3F5005F24D13946FEF7D2FFEF
:108F90000446F8B9F369FC1DE40843BB21460120EF
:108FA000FEF7AFFBF06128B334622146FFF766FF9E
:108FB000044678B977800098FFF77FF9044648B9EE
:108FC000204602B0BDE8F081284600F096F804463D
:108FD0000028BFD00098FFF785FB0023A8F80030D9
:108FE000EEE70028E7D0F5E76FF08604F2E76FF0D0
:108FF0008A04EFE76FF08C04ECE76FF08604DFE79C
:1090000010B50B4C00F044FB94F8F03013F0060F51
:1090100007D004F1A400FEF7B2FD636804F1080074
:109020009847BDE81040F4210148FEF779BF00BF22
:109030005019002030B5254B254C85B0039394F88A
:10904000F030DB0703D50025284605B030BD236886
:109050000BB9204B236063680BB91F4B6360236817
:109060001E4898471E48FEF780FD012294F8F03014
:109070001C4962F3420384F8F0300323174A00933B
:1090800002F19C0003ABFEF78AFDFFF73FF90546AE
:10909000C8B9022294F8F03062F3420384F8F03049
:1090A00000F0EAFA054670B900F01EF810F1860FDC
:1090B000054600D038B994F8F03043F0010384F845
:1090C000F030002DBFD0FFF79BFFBDE750534100AC
:1090D00050190020DD7D00001D7E00005819002081
:1090E000F4190020397E000008B502F0A7FA18B97B
:1090F000BDE8084002F0ABBA08BD6FF085007047CC
:109100004B681B0A0CBF6FF085006FF0860070473C
:1091100043681B0A0CBF6FF085006FF08600704734
:109120002DE9F0419846054600238CB003ACCDE90B
:109130000A33476806468C4696460FCD0FC495E81D
:1091400007003F0A84E8070004D0012F14D06FF015
:1091500086000EE0BDF80C3003F4E043B3F5804F19
:1091600013D0D6E90712CDE900E8634603A803F05F
:1091700093F80CB0BDE8F081CDE900E8D6E907121C
:10918000634603A803F086F8F3E76FF08500F0E785
:109190006FF0860070472DE9F0431F460546002317
:1091A000884691468BB001ACCDE9083306460FCD19
:1091B0000FC495E807003B4684E807004A4641464D
:1091C00001A803F063F938B94A4641463046FFF733
:1091D0002BFA08B93B6873800BB0BDE8F0832DE92A
:1091E000F04F98460D46002391B007ACCDE90E3301
:1091F000DDE91A9A4F6884460E4696460FCD0FC495
:1092000095E807003F0ADDF870B084E8070004D055
:10921000012F11D06FF086000BE0CDE903ABD6E94A
:109220000723CDE90189CDF800E007A9604603F0E6
:109230000EFD11B0BDE8F08FCDE903ABD6E90723F1
:10924000CDE90189CDF800E007A9604603F035FBC0
:10925000EFE74268F8B5120A06460D464F680388E4
:1092600044880AD103F4E042B2F5805F02D0B2F53F
:10927000005F05D10734E40864B96FF0850452E05B
:1092800047F2010293421CD164080134E40804EB64
:10929000C4043B3421460120FEF733FA0146E8615D
:1092A000002845D03B0A2C623FD12B885B042ED48A
:1092B0006FF08504E869FEF734FA0023C5E9073347
:1092C00031E044F20102934202D1E4081034E1E7B4
:1092D00047F20202934204D1E40804EB44045A34F6
:1092E000D8E744F20202934204D1E40804EB4404B8
:1092F0004A34CFE723F0FF03B3F5E24FBAD0B3F51A
:10930000824FBAD10734E40864000134C2E7224630
:1093100005F12003304602F023FF10F1860F0446CA
:10932000C6D00028C6D12046F8BD6FF08604C1E73C
:109330006FF08C04F7E72DE9F0474FF000090E4677
:109340008CB003AD4F68CDE90A9904468846924631
:109350000FCE0FC596E807003F0A85E8070004D046
:10936000012F23D06FF0860507E064210120FEF76E
:10937000C8F9606028B96FF08C0528460CB0BDE8CC
:10938000F087CDF800A0D8E9072303A903F0E4FB98
:10939000054610B903232360EFE764216068FEF7F8
:1093A000BFFD6068FEF7BDF96760E6E7A0213846BB
:1093B000FEF7A7F960600028DDD0D8E90723CDF8D3
:1093C00000A003A903F01AFA054608B90423E2E74E
:1093D000A0216068FEF7A4FD6068FEF7A2F9C4F85A
:1093E0000490CAE7FFF7A7BF0368032B04D0042B40
:1093F00005D06FF088007047406803F0DEBB40681E
:1094000003F03DBA10B40468032C06D0042C09D034
:109410006FF088005DF8044B704740685DF8044BBE
:1094200003F0E9BB40685DF8044B03F034BA38B58B
:109430000546D0E9004000B97CB1032C04D0042CCF
:1094400002D06FF0880408E003F0F6FB0446686879
:10945000FEF767F90023C5E90033204638BD2DE942
:10946000F0474FF000090E468CB003AD4F68CDE9D0
:109470000A990446884692460FCE0FC596E8070023
:109480003F0A85E8070004D0012F23D06FF085053F
:1094900007E074210120FEF734F9606028B96FF00D
:1094A0008C0528460CB0BDE8F087CDF800A0D8E9BF
:1094B000072303A903F022FA054610B9032323600A
:1094C000EFE774216068FEF72BFD6068FEF729F96D
:1094D0006760E6E790213846FEF713F960600028E0
:1094E000DDD0D8E90723CDF800A003A903F01AF9CD
:1094F000054608B90423E2E790216068FEF710FDF5
:109500006068FEF70EF9C4F80490CAE72DE9F04749
:109510004FF000090E468CB003AD4F68CDE90A99B3
:109520000446884692460FCE0FC596E807003F0ACC
:1095300085E8070004D0012F23D06FF0850507E0F0
:1095400074210120FEF7DDF8606028B96FF08C050A
:1095500028460CB0BDE8F087CDF800A0D8E9072375
:1095600003A903F0EDF9054610B903232360EFE7E3
:1095700074216068FEF7D4FC6068FEF7D2F867607B
:10958000E6E790213846FEF7BCF860600028DDD0A1
:10959000D8E90723CDF800A003A903F0E5F80546B4
:1095A00008B90423E2E790216068FEF7B9FC60681F
:1095B000FEF7B7F8C4F80490CAE710B40468032CA7
:1095C00006D0042C09D06FF088005DF8044B70477A
:1095D00040685DF8044B03F0D5B940685DF8044B72
:1095E00003F0E4B810B40468032C06D0042C09D0AE
:1095F0006FF088005DF8044B704740685DF8044BDD
:1096000003F0D1B940685DF8044B03F0E0B838B519
:109610000546D0E9004000B97CB1032C04D0042CED
:109620000DD06FF0880408E003F0CEF904466868B6
:10963000FEF777F80023C5E90033204638BD03F074
:10964000D5F8F3E70B4A92F84830DB070BD5431EF9
:1096500098B201280AD8242058431318125A2AB164
:109660000B60002070476FF0880070476FF0870034
:10967000704700BF441A0020044A002092F8483086
:1096800043F0010382F84830704700BF441A0020BD
:1096900010B5074C2046FFF711F804F12400FFF73E
:1096A0000DF894F848306FF3000384F8483010BD8B
:1096B000441A002070B50E4C94F84830DB0711D5E1
:1096C00002232425038002881AB96FF08C000A60F7
:1096D00070BD013A05FB02F3E618E35A0E6023B1B0
:1096E0000280F0E76FF08800F2E71846F0E700BF6D
:1096F000441A00200020704710F0FF030ED00A4BE0
:109700004A1E9A420AD9030A0AD001F14041B1F136
:10971000804F2CBF6FF086000020704700207047FC
:109720006FF08600704700BFFEFFFF3F2DE9F0415C
:109730004FF00008071E8CB00E46A1F8008055DDE2
:1097400001A93046FFF7B6FF0546002847D107F1CB
:10975000004303F58033B3F5704F019C15D20146E9
:10976000242203A822F045FF012304F1200204F182
:109770001C0103A80597049301F06CFF054638B35C
:1097800010F18C0FC4E907881CD10123019C03AAA6
:10979000C4E90137002302A92046CDE9023300F0D5
:1097A0003DF9054648B9DDE9021263681B0A00D09D
:1097B000C9B12046FEF738FF0546DDE9020100F099
:1097C00023F965B10198FEF779FF0023338006E0A5
:1097D00003AE0FCE0FC496E8070084E807002846C2
:1097E0000CB0BDE8F0816FF09105E6E76FF08605FB
:1097F000F5E707B530B101A9FFF724FF10B90198CB
:10980000FEF75CFF03B05DF804FB07B500216A4674
:1098100001F086FB8C3018BF012003B05DF804FB1B
:1098200013B500216A46044601F07AFB8C300FD054
:109830000021204601F0AAFB014618B16FF091000B
:1098400002B010BD6A46204601F06AFB8C30F5D1AB
:109850000020F5E7F8B515460E46074608222249CE
:1098600018461C4622F0A1FE002323726372A372E5
:10987000E3726B6839461A0A237362731A0C1B0E63
:10988000A273E3732B8804F1240023741B0A63740E
:109890006B88A3741B0AE374EB681A0A237562755C
:1098A0001A0C1B0EA275E3752B691A0A23766276D1
:1098B0001A0C1B0EA276E3766B6984F820601A0AF4
:1098C000237762771A0C1B0EE377330A84F8213072
:1098D000330CA27784F82230330E84F823303246DA
:1098E000BDE8F84022F061BE40D902002DE9F04108
:1098F000232904460E4690461F46069D03D86FF066
:109900009100BDE8F08108221A4922F03FFE0028AC
:10991000F5D1A368002BF2D1216A243EB14239600F
:10992000EDD8B1F5005FEAD2A9B9C8F80010E36834
:1099300000206B60627C237C43EA02232B80E27C64
:10994000A37C43EA02236B806369EB60A3692B610C
:10995000E3696B61D5E70120FDF7D3FEC8F800008D
:1099600028B13A6804F1240122F01FFEDFE76FF00E
:109970008C00C6E740D90200B2F5005F2DE9FF4137
:1099800006468846144639D202F12407394601209A
:10999000FDF7B7FE0546A0B30346324621464046D2
:1099A000FFF758FFB66800243046FFF72EFF012866
:1099B0001ED0214600942B463A46304601F0B8F9B5
:1099C0000146C0B902AA304601F0AAFA044620B9FD
:1099D000029B9F4205D06FF091043046002101F0B8
:1099E000D5FA2846FDF79DFE204604B0BDE8F0817B
:1099F0006FF08A04F5E76FF09104F2E76FF08D04E1
:109A0000F2E76FF08C04EFE710B5044608B1FEF7FB
:109A100087FA2046BDE81040FDF783BE2DE9F047E8
:109A2000876886B0804689469246384604AA002157
:109A300001F076FA044600BB049E01203146FDF792
:109A400060FE054648B3214604AA3846039401F057
:109A500067FA044670B903ABCDE9005302463346BA
:109A60002146384601F0EEF9039B04469E4208D099
:109A70006FF091042846FDF754FE204606B0BDE87D
:109A8000F0870028F6D1CDF8008053464A4631468B
:109A90002846FFF72BFF0446ECE76FF08C04ECE759
:109AA000F0B51C469DB0064601A80F46154601F0CC
:109AB000E5FA214601A801F0E5FA044658B93A460C
:109AC000314601A801F0F0FA044620B9294601A860
:109AD00001F0F1FA044601A801F0D2FA20461DB0C7
